:04000000BAEF3FF024
:107F7400026A016A0001E6EF3FF0C2B2FED7C28294
:107F8400C3CF03F0C4CF04F01200500ED36E92801E
:107F940093908A90010E0F01386F1200830EC2165F
:107FA400F30EC116FC0EC116C050C70B1009C06EEB
:107FB400C050F80B0109C06EC08EC28000D000D042
:107FC40000D000D0C2821200C7EC3FF0D0EC3FF0EA
:107FD400BFEC3FF003C001F004C002F0340E015CBA
:107FE400030E0258D8A002D08A80F2D79B0E015CFF
:0C7FF400010E0258D8B0ECD78A90EAD7F2
:020000040030CA
:08000000FF281F3CFFBD81FF3A
:00000001FF
