:040000000FEF00F00E
:1000080002829EBC9DAC05D09E9CC4CF01F001C06D
:100018008AFF0292110045EF00F0830EC216F30E1C
:10002800C116FC0EC116C050C70B1009C06EC050D7
:10003800F80B0109C06EC09EC2801200500ED36E2C
:100048009280010E0F01386F000E3A6F3ACF39FFD8
:10005800C30E9316120022EC00F011EC00F03AECFB
:1000680000F04BEC00F051EC00F0FFD75451F00BCE
:100078000B09546FF30E4817C30E566F500E556F89
:100088001200016A0290029200012FEF00F03F0E69
:10009800CD16CD9ACD88CD8012009D8C9E9CF28E77
:0400A800F28C1200C4
:020000040030CA
:08000000FF281F3CFFBD81FF3A
:00000001FF
